:100000000C9459000C94C2190C94F0190C948100B2
:100010000C9481000C9481000C9481000C94960740
:100020000C9481000C9481000C9481000C9481004C
:100030000C9481000C9481000C9481000C9481003C
:100040000C94251A0C9481000C9418040C9444040C
:100050000C9481000C9481000C9481000C9481001C
:100060000C94191D0C94810002000000002500284A
:10007000002B00040404040404040402020202022B
:10008000020303030303030102040810204080015C
:1000900002040810200102040810200000000800DB
:1000A000020100000304070000000000000000003F
:1000B000711E11241FBECFEFD8E0DEBFCDBF11E00F
:1000C000A0E0B1E0E6E0FFE302C005900D92A436A7
:1000D000B107D9F725E0A4E6B1E001C01D92AE3228
:1000E000B207E1F710E0C9E5D0E004C02197FE01B6
:1000F0000E94821EC835D107C9F70E943C190C9492
:10010000B81E0C940000CF93DF93CDB7DEB7F89400
:1001100081E0DF91CF910895CF93DF9300D0CDB7E9
:10012000DEB79A8389838FE590E029813A81F901CE
:100130002081FC0120830F900F90DF91CF910895D3
:10014000CF93DF9300D00F92CDB7DEB79B838A8326
:100150008A819B81FC01848D882F90E02A813B81DC
:10016000820F931F835A9F4FFC01808189838A816C
:100170009B81FC01848D882F90E001968F7390788D
:10018000992324F40197806C9F6F0196282F8A8110
:100190009B81FC01248F8A819B81FC018689978940
:1001A0002981FC0120838A819B81FC0180899189BE
:1001B000FC0180818370282F20648A819B81FC014F
:1001C00080899189FC0120838A819B81FC01238D98
:1001D0008A819B81FC01948D81E0291709F080E0E0
:1001E000882379F08A819B81FC0182899389FC01B3
:1001F00020818A819B81FC01828993892F7DFC016A
:1002000020830F900F900F90DF91CF910895CF939F
:10021000DF9300D0CDB7DEB79A83898389819A8135
:10022000FC01818D882F90E09C01205C3F4F8981EB
:100230009A81FC01828D882F90E0A901481B590BFF
:10024000CA018F7399270F900F90DF91CF91089576
:10025000CF93DF9300D0CDB7DEB79A8389838981AE
:100260009A81FC01218D89819A81FC01928D81E026
:10027000291709F080E0882319F08FEF9FEF0FC056
:1002800089819A81FC01828D882F90E029813A81B1
:10029000820F931F4D96FC018081882F90E00F9074
:1002A0000F90DF91CF910895CF93DF9300D00F92FD
:1002B000CDB7DEB79B838A838A819B81FC01218D28
:1002C0008A819B81FC01928D81E0291709F080E0F1
:1002D000882319F08FEF9FEF1CC08A819B81FC015E
:1002E000828D882F90E02A813B81820F931F4D964B
:1002F000FC01808189838A819B81FC01828D8F5FD3
:10030000282F2F738A819B81FC01228F8981882F5E
:1003100090E00F900F900F90DF91CF910895CF93C1
:10032000DF9300D000D0CDB7DEB79C838B838B8169
:100330009C81FC01838D89838B819C81FC01848D50
:100340008A8399818A81981768F08981882F90E043
:100350002FE330E0281B390B8A81882F90E0820F31
:10036000931F0BC08A81282F30E08981882F90E06D
:10037000A901481B590BCA0101970F900F900F90CC
:100380000F90DF91CF910895CF93DF9300D0CDB739
:10039000DEB79A83898389819A81FC01908D81E0FF
:1003A0008927882309F04EC089819A81FC018289BE
:1003B0009389FC018081882F90E080729927892B96
:1003C00069F489819A81FC0180899189FC0180818D
:1003D000882F90E080749927892B11F481E001C067
:1003E00080E0882381F18FE590E0FC018081882303
:1003F0007CF089819A81FC0182899389FC0180814A
:10040000882F90E080729927892B11F081E001C03C
:1004100080E0882349F289819A81FC018089918951
:10042000FC018081882F90E08072992721E0892B40
:1004300009F420E0222309F4B7CF89819A810E9430
:10044000A000B2CF00000F900F90DF91CF910895E0
:10045000CF93DF93CDB7DEB728970FB6F894DEBF02
:100460000FBECDBF9F838E8368878E819F8121E0E1
:10047000FC01208F8E819F81FC01238D8E819F81C5
:10048000FC01848D281779F48E819F81FC0180897D
:100490009189FC018081882F90E080729927892BB7
:1004A00011F081E001C080E0882369F18FE590E0E0
:1004B000FC0180818D830E94830089838981882348
:1004C000D9F08E819F81FC01868997892885FC015E
:1004D00020838E819F81FC0180899189FC0180812C
:1004E0008370282F20648E819F81FC0180899189EF
:1004F000FC0120831982E2CFCE0105960E948C0078
:1005000081E090E071C08E819F81FC01838D882FF6
:1005100090E001968F739078992324F40197806C72
:100520009F6F01968B838E819F81FC01948D81E06A
:100530002B81291709F080E0882301F18FE590E0F5
:10054000FC0180818095881F8827881F882359F3A4
:100550008E819F81FC0180899189FC018081882F97
:1005600090E08072992721E0892B09F420E0222372
:10057000D1F28E819F810E94A000D5CF8E819F8174
:10058000FC01838D882F90E02E813F81820F931F85
:10059000835A9F4F2885FC0120838FE590E0FC0162
:1005A00080818C830E9483008A838A818823B1F0B2
:1005B0008E819F812B81FC01238F8E819F81FC0185
:1005C00082899389FC0120818E819F81FC0182892F
:1005D00093892062FC0120831A82E7CFCE01049622
:1005E0000E948C0081E090E028960FB6F894DEBF60
:1005F0000FBECDBFDF91CF910895CF93DF9300D091
:10060000CDB7DEB79A8389832DE331E089819A8162
:10061000FC013183208389819A81FC01138212823B
:100620000F900F90DF91CF910895CF93DF9300D07B
:10063000CDB7DEB79A83898380E090E00F900F906A
:10064000DF91CF910895CF93DF9300D0CDB7DEB780
:100650009A8389830F900F90DF91CF910895CF9364
:10066000DF9300D0CDB7DEB79A83898389819A81E1
:100670000E94FD022FE131E089819A81FC013183E2
:10068000208329813A8188EE93E0A0E0B0E0F9016F
:1006900084839583A683B7830F900F90DF91CF91CA
:1006A0000895CF92DF92EF92FF920F931F93CF9313
:1006B000DF93CDB7DEB72E970FB6F894DEBF0FBE2F
:1006C000CDBF9A8389837C836B835E834D83388718
:1006D0002F831A870987FC86EB86DE86CD86898183
:1006E0009A810E942F032DE031E089819A81FC01DB
:1006F0003183208389819A812B813C81FC0135875C
:10070000248789819A812D813E81FC013787268744
:1007100089819A812F813885FC01318B208B8981D9
:100720009A8129853A85FC01338B228B89819A81B4
:100730002B853C85FC01358B248B89819A812D8505
:100740003E85FC01378B268B89819A81FC01118EB5
:1007500089819A81FC01128E89819A81FC01138E14
:1007600089819A81FC01148E2E960FB6F894DEBF13
:100770000FBECDBFDF91CF911F910F91FF90EF90F2
:10078000DF90CF900895CF93DF9300D000D0CDB706
:10079000DEB79C838B838B819C81FC01808991894E
:1007A000FC018081882F90E08470992721E0892BBB
:1007B00009F020E0222371F18B819C81FC01868964
:1007C0009789FC01808189838B819C81FC01818DCB
:1007D0008F5F8F738A838B819C81FC01928D81E076
:1007E0002A81291709F480E08823D9F08B819C8124
:1007F000FC01818D882F90E02B813C81820F931F1B
:100800004D962981FC0120838B819C812A81FC01EA
:10081000218F07C08B819C81FC0186899789FC010F
:1008200080810F900F900F900F90DF91CF910895DE
:100830001F920F920FB60F9211242F933F934F9355
:100840005F936F937F938F939F93AF93BF93EF9338
:10085000FF93CF93DF93CDB7DEB784E691E00E949C
:10086000C303DF91CF91FF91EF91BF91AF919F9122
:100870008F917F916F915F914F913F912F910F9049
:100880000FBE0F901F9018951F920F920FB60F92E8
:1008900011242F933F934F935F936F937F938F9385
:1008A0009F93AF93BF93EF93FF93CF93DF93CDB716
:1008B000DEB784E691E00E94A000DF91CF91FF9126
:1008C000EF91BF91AF919F918F917F916F915F91C8
:1008D0004F913F912F910F900FBE0F901F90189541
:1008E000CF92DF92EF92FF920F931F93CF93DF93FC
:1008F00000D000D0CDB7DEB79A8389837C836B8329
:1009000089819A810197D1F48B819C810196B1F400
:100910000F2EF6ECCF2ED12CF02D0F2EF2ECEF2E69
:10092000F12CF02D01EC10E020EC30E044EC50E034
:1009300065EC70E084E691E00E9451030F900F9007
:100940000F900F90DF91CF911F910F91FF90EF903B
:10095000DF90CF900895CF93DF93CDB7DEB76FEFE1
:100960007FEF81E090E00E947004DF91CF910895C5
:10097000CF93DF9300D0CDB7DEB79A83898327E387
:1009800031E089819A81FC01318320830F900F909F
:10099000DF91CF9108950F93CF93DF9300D000D0D4
:1009A00000D0CDB7DEB79A8389836B834C832D83C8
:1009B0000E8389819A810E94B80421E331E0898104
:1009C0009A81FC013183208389819A812B81FC01EA
:1009D000228389819A812C81FC01238389819A81D8
:1009E0002D81FC01248389819A812E81FC0125833C
:1009F00026960FB6F894DEBF0FBECDBFDF91CF9124
:100A00000F910895CF93DF93CDB7DEB728970FB638
:100A1000F894DEBF0FBECDBF9E838D8378876F8332
:100A20001A8219821C821B828B819C8103974CF550
:100A30002D813E818B819C81820F931F0296FC0148
:100A400020818F8198854AE050E0622F0E9428061D
:100A50009C0189819A81820F931F9A8389838F8158
:100A600098856EE20E940B069C0189819A81820F13
:100A7000931F9A8389838B819C8101969C838B83AE
:100A8000D3CF8D819E81FC0125818F8198854AE09D
:100A900050E0622F0E9428069C0189819A81820F72
:100AA000931F9A83898389819A8128960FB6F89437
:100AB000DEBF0FBECDBFDF91CF9108950F93CF93CF
:100AC000DF9300D000D0CDB7DEB79A8389837C83D3
:100AD0006B8389819A81019761F48B819C81019656
:100AE00041F400E020E040E060E081E092E00E941C
:100AF000CB040F900F900F900F90DF91CF910F913B
:100B00000895CF93DF93CDB7DEB76FEF7FEF81E02E
:100B100090E00E945E05DF91CF9108950F931F939F
:100B2000CF93DF9300D000D0CDB7DEB79A8389830F
:100B30007C836B838B819C81892B19F480E090E00E
:100B400015C089819A81FC01808191810296FC0106
:100B5000008111818B819C810E948D1EAC012B81B3
:100B60003C8189819A81B901F80109950F900F9014
:100B70000F900F90DF91CF911F910F910895CF9318
:100B8000DF93CDB7DEB728970FB6F894DEBF0FBE60
:100B9000CDBF9C838B837E836D8358874F831A825E
:100BA00019828F8198859C012150310938872F83C4
:100BB00021E0892B09F420E0222311F18B819C8113
:100BC000FC0180819181FC01208131818D819E8198
:100BD000AC014F5F5F4F5E834D83FC0140818B8191
:100BE0009C81642FF901099521E0892B09F420E00B
:100BF000222331F089819A8101969A838983D1CF0A
:100C000089819A8128960FB6F894DEBF0FBECDBFBA
:100C1000DF91CF910895CF93DF9300D00F92CDB79E
:100C2000DEB79A8389836B8389819A81FC018081F5
:100C30009181FC01208131814B8189819A81642FCE
:100C4000F90109950F900F900F90DF91CF910895C2
:100C5000CF93DF9300D000D00F92CDB7DEB79A8349
:100C600089836B835D834C838B81882F90E0A0E028
:100C7000B0E02C813D81E981FA81AC01BD01CF0159
:100C80000E944A060F900F900F900F900F90DF91E7
:100C9000CF910895CF93DF93CDB7DEB728970FB6E6
:100CA000F894DEBF0FBECDBF9A8389834B835C83EC
:100CB0006D837E8338872F838F819885892B79F484
:100CC00089819A81FC0180819181FC01208131819F
:100CD0004B8189819A81642FF90109950CC02F817C
:100CE0008B819C81AD81BE81E981FA81AC01BD011E
:100CF000CF010E94840628960FB6F894DEBF0FBE7F
:100D0000CDBFDF91CF9108950F931F93CF93DF93C2
:100D1000CDB7DEB7E7970FB6F894DEBF0FBECDBFF5
:100D20009EA38DA34FA358A769A77AA72BA7CE018F
:100D3000049680969A83898389819A81DC011C922A
:100D40008BA5823010F48AE08BA78BA5082F10E0CA
:100D500020E030E08FA198A5A9A5BAA58CA79DA7F2
:100D6000AEA7BFA76CA57DA58EA59FA5A9019801DB
:100D70000E94961E68AB79AB8AAB9BAB88A999A9F8
:100D8000AAA9BBA98B838BA5082F10E020E030E037
:100D90008FA198A5A9A5BAA58CAB9DABAEABBFABF7
:100DA0006CA97DA98EA99FA9A90198010E94961EF0
:100DB000DA01C9018FA398A7A9A7BAA78B818A30A6
:100DC00024F48B81805D282F03C08B81895C282FC0
:100DD00089819A8101979A83898389819A81DC012B
:100DE0002C938FA198A5A9A5BAA5892B8A2B8B2B0B
:100DF00009F0ABCF29813A818DA19EA1B9010E9452
:100E00008E05E7960FB6F894DEBF0FBECDBFDF911B
:100E1000CF911F910F910895CF93DF930F92CDB78C
:100E2000DEB789838981882F90E082309105B9F0FF
:100E3000833091058CF5009719F0019731F02CC0A3
:100E40008EE690E0FC01108227C08FE690E0FC0166
:100E500020818FE690E02D7FFC0120831DC080E77C
:100E600090E0FC01208180E790E02D7FFC01208351
:100E700080EB90E021E0FC01208381EB90E0FC011D
:100E80008081887F282F246081EB90E0FC01208303
:100E900083EB90E0FC0110820F90DF91CF910895D9
:100EA000CF93DF9300D000D000D00F92CDB7DEB744
:100EB0008F838FEF89831B821A828A819B81181608
:100EC000190624F18A819B8180509F4FFC0180810B
:100ED0009F819817A9F48A819B8188599F4F9D8390
:100EE0008C838C819D81FC0184918E838E8189838A
:100EF0008A819B8180509F4F2FEFFC01208306C089
:100F00008A819B8101969B838A83D7CF89810E94A6
:100F10000C0760E08F810E94091C27960FB6F89499
:100F2000DEBF0FBECDBFDF91CF9108951F920F920C
:100F30000FB60F9211242F933F934F935F936F93AC
:100F40007F938F939F93AF93BF93EF93FF93CF9331
:100F5000DF93CDB7DEB78091070290910802A09190
:100F60000902B0910A0221E0892B8A2B8B2B09F40C
:100F700020E02223A1F130910D0280910B0290918B
:100F80000C02FC01208180910B0290910C0223271E
:100F9000FC0120838091070290910802A091090230
:100FA000B0910A0221E0181619061A061B060CF069
:100FB00020E02223C1F08091070290910802A091C5
:100FC0000902B0910A020197A109B10980930702B1
:100FD00090930802A0930902B0930A0204C0809182
:100FE00000010E945007DF91CF91FF91EF91BF91D7
:100FF000AF919F918F917F916F915F914F913F91B1
:101000002F910F900FBE0F901F901895CF93DF93E5
:10101000CDB7DEB70E94881ECF93DF9300D000D0FB
:10102000CDB7DEB79A8389837C836B8389819A816C
:101030002B813C81FC01338322830F900F900F9012
:101040000F90DF91CF910895CF93DF9300D0CDB76C
:10105000DEB79A83898389819A810E942F0329E4CC
:1010600031E089819A81FC01318320830F900F90B8
:10107000DF91CF910895CF93DF9300D00F92CDB73A
:10108000DEB79A8389836B8380915202882301F1B2
:1010900080915102803248F089819A8161E070E04C
:1010A0000E940C0880E090E01AC080915002882FC6
:1010B00090E02B81805D9D4FFC0120838091500248
:1010C0008F5F80935002809150028093510205C03F
:1010D000CE01039661E00E94921C81E090E00F90A7
:1010E0000F900F90DF91CF910895CF93DF93CDB7FD
:1010F000DEB728970FB6F894DEBF0FBECDBF9C8336
:101100008B837E836D8358874F838091520288231F
:1011100021F11A82198229813A818F8198852817B5
:10112000390708F58B819C81FC0180819181FC014C
:10113000208131814D815E8189819A81840F951F43
:10114000FC0140818B819C81642FF9010995898183
:101150009A8101969A838983DECF2F818D819E812A
:10116000622F0E94921C8F81988528960FB6F89462
:10117000DEBF0FBECDBFDF91CF910895CF93DF9338
:1011800000D0CDB7DEB79A83898380912F02282FB4
:1011900030E080912E02882F90E0A901481B590B66
:1011A000CA010F900F90DF91CF910895CF93DF93F5
:1011B00000D000D0CDB7DEB79C838B838FEF9FEF3D
:1011C0009A83898390912E0280912F02981788F438
:1011D00080912E02882F90E0825F9D4FFC018081DC
:1011E000882F90E09A83898380912E028F5F80936D
:1011F0002E0289819A810F900F900F900F90DF91AE
:10120000CF910895CF93DF9300D000D0CDB7DEB754
:101210009C838B838FEF9FEF9A83898390912E021B
:1012200080912F02981760F480912E02882F90E011
:10123000825F9D4FFC018081882F90E09A83898393
:1012400089819A810F900F900F900F90DF91CF912D
:101250000895CF93DF9300D0CDB7DEB79A8389830B
:101260000F900F90DF91CF910895CF93DF9300D02F
:1012700000D0CDB7DEB79A8389837C836B83898165
:101280009A81019741F48B819C81019621F483E539
:1012900092E00E9424080F900F900F900F90DF9122
:1012A000CF910895CF93DF93CDB7DEB76FEF7FEF88
:1012B00081E090E00E943509DF91CF910895CF93AE
:1012C000DF9300D0CDB7DEB79A83898389819A8175
:1012D000FC01958181E0923008F480E00F900F903E
:1012E000DF91CF910895CF93DF9300D0CDB7DEB7D4
:1012F0009A83898389819A81FC01958181E0992370
:1013000009F480E00F900F90DF91CF910895CF9373
:10131000DF9300D0CDB7DEB79A83898389819A8124
:10132000FC01158289819A81FC01168289819A814A
:10133000FC01118689819A81FC0113860F900F9020
:10134000DF91CF910895CF93DF9300D0CDB7DEB773
:101350009A83898389819A810E94FD022BE531E07D
:1013600089819A81FC013183208389819A81FC01E2
:1013700015820F900F90DF91CF910895CF93DF9357
:1013800000D0CDB7DEB79A83898329813A8182E084
:1013900090E0A0E0B0E0F90180839183A283B38361
:1013A00089819A81FC01178A0F900F90DF91CF916C
:1013B0000895CF93DF9300D0CDB7DEB79A838983AA
:1013C00089819A810E94870989819A810C960E945D
:1013D000BE0989819A818A960E94A3090F900F9075
:1013E000DF91CF910895CF93DF9300D000D0CDB798
:1013F000DEB79A8389837C836B8389819A81019785
:1014000041F48B819C81019621F482E692E00E9456
:10141000D9090F900F900F900F90DF91CF91089501
:10142000CF93DF93CDB7DEB76FEF7FEF81E090E032
:101430000E94F309DF91CF910895CF93DF9300D0FD
:10144000CDB7DEB79A83898389819A81FC01838530
:101450000F900F90DF91CF910895CF93DF9300D03D
:101460000F92CDB7DEB79A8389836B8389819A8186
:101470002B81FC0125830F900F900F90DF91CF916E
:101480000895CF93DF93CDB7DEB72F970FB6F894BB
:10149000DEBF0FBECDBF9F878E878E859F859A83C7
:1014A000898380E099E0ADE3B0E08B839C83AD83DA
:1014B000BE8381E08F83188680E092E1AAE7B0E0E6
:1014C00089879A87AB87BC871D868D858630E8F42F
:1014D0004B815C816D817E8189859A85AB85BC85D8
:1014E000481759076A077B0780F489859A85AB8579
:1014F000BC85B695A7959795879589879A87AB8779
:10150000BC878D858F5F8D87E0CF8D85863011F408
:1015100087E08D879D8581E089278D878F8188234E
:1015200011F480E701C080E598859C70292F282B55
:101530008D85882F90E0959587958370822B282F35
:1015400089819A81FC0120838D85282F21708981D2
:101550009A81FC0121832F960FB6F894DEBF0FBE4F
:10156000CDBFDF91CF910895CF93DF9300D00F923D
:10157000CDB7DEB79B838A8380915F02882339F1E0
:101580008FE590E0FC0180818983F89480915F026F
:101590008130D1F48DE390E0FC0180818093610281
:1015A0008DE390E0FC018081982F8091600280950E
:1015B000292F28238DE390E0FC0120838FE590E024
:1015C0002981FC01208303C08981809361028CE41E
:1015D00090E02A81FC0120838DE490E02B81FC01C6
:1015E00020830F900F900F90DF91CF910895CF93AC
:1015F000DF930F92CDB7DEB789838EE490E0298127
:10160000FC01208300008DE490E0FC018081809546
:10161000881F8827881F8823B1F78EE490E0FC019B
:1016200080810F90DF91CF910895CF93DF930F9238
:10163000CDB7DEB780915F028823E1F08FE590E0BF
:10164000FC0180818983F89480915F02813061F48C
:101650008DE390E020916102FC0120838FE590E012
:101660002981FC01208306C08FE590E02091610272
:10167000FC0120830F90DF91CF910895CF93DF93EA
:101680000F92CDB7DEB7898389810E94F70A0F9048
:10169000DF91CF910895CF93DF93CDB7DEB78FEF72
:1016A0000E94F70ADF91CF910895CF93DF93CDB7D2
:1016B000DEB72A970FB6F894DEBF0FBECDBF9D836D
:1016C0008C836E832F83388749875A878C819D81CD
:1016D0000E94440D8C819D810E94E30B8C819D8131
:1016E0006CE271E00E94750D8E8180640E943E0B59
:1016F00088E1898389818823ACF08981282F880F2C
:10170000330B8F819885A985BA8504C0B695A795B6
:10171000979587952A95D2F70E943E0B898188502C
:101720008983E8CF8FEF8A838E81882311F485E93E
:101730008A838E81883011F487E88A838A810E94A7
:101740003E0B1B820E944B0B282F8C819D81FC013C
:1017500022878C819D81FC01828588232CF48B81DA
:101760008F3F11F081E001C080E0882321F08B8160
:101770008F5F8B83E7CF8C819D81FC0182852A96C8
:101780000FB6F894DEBF0FBECDBFDF91CF910895A5
:10179000CF93DF9300D0CDB7DEB79A838983898159
:1017A0009A81FC01848161E00E94091C8091AD0254
:1017B000882321F01092AD020E94150B0F900F901C
:1017C000DF91CF910895CF93DF9300D0CDB7DEB7EF
:1017D0009A8389838091AD02882349F481E08093C4
:1017E000AD028091AB029091AC020E94B40A898153
:1017F0009A81FC01848160E00E94091C0F900F9087
:10180000DF91CF910895EF92FF920F931F93CF93A3
:10181000DF93CDB7DEB728970FB6F894DEBF0FBEC3
:10182000CDBF9A8389834B835C836D837E833887A6
:101830002F832F8138858B819C81AD81BE81E98189
:10184000FA81790100E012E020E030E0AC01BD0156
:10185000CF010E94380C28960FB6F894DEBF0FBE59
:10186000CDBFDF91CF911F910F91FF90EF90089521
:10187000EF92FF920F931F93CF93DF93CDB7DEB715
:101880002E970FB6F894DEBF0FBECDBF9C838B831F
:101890004D835E836F8378873A8729871C870B8700
:1018A000FE86ED868B859C85892B11F481E0DFC057
:1018B0002B853C8589859A85820F931F81309240C4
:1018C00008F0CDC08B819C81FC0186818823D9F0F2
:1018D0008B819C81FC0180819181A281B3814D81AA
:1018E0005E816F817885481759076A077B0759F42D
:1018F0008B819C81FC018781908529853A852817F9
:10190000390708F056C02B813C818D819E81AF81C3
:10191000B885F90180839183A283B3838B819C81F5
:101920000E941D0A982F81E0933009F480E08823FB
:1019300089F08D819E81AF81B885072E79E0880F6F
:10194000991FAA1FBB1F7A95D1F7702D8D839E8397
:10195000AF83B8878D819E81AF81B885EB81FC8193
:101960009C01AD0161E1CF010E94550B982F81E0F0
:10197000992309F480E0882331F08B819C8163E016
:101980000E942D0A6FC08B819C810E94B90D982FF7
:1019900081E0992309F080E0882309F062C08B81FF
:1019A0009C81FC01108617828B819C8121E0FC01C7
:1019B00026838B819C81FC018781908529853A85CE
:1019C0008217930780F40E944B0B8B819C81FC0152
:1019D000878190859C012F5F3F4F8B819C81FC010B
:1019E00030872783E6CF1A82198229813A818B8535
:1019F0009C852817390788F42D853E8589819A8131
:101A00008901080F191F0E944B0BF80180838981FF
:101A10009A8101969A838983E8CF8B819C81FC010E
:101A2000278130858B859C85280F391F8B819C8170
:101A3000FC01308727838B819C81FC018185882371
:101A400041F08B819C81FC018781908581159240BA
:101A500020F08B819C810E94440D81E008C0000031
:101A600001C000008B819C810E94C80B80E02E96F3
:101A70000FB6F894DEBF0FBECDBFDF91CF911F919F
:101A80000F91FF90EF900895CF93DF9300D0CDB7E3
:101A9000DEB79A83898389819A81FC0186818823B4
:101AA000F9F089819A81FC0187819085AC014F5FB3
:101AB0005F4F29813A81F9015087478321E08230C5
:101AC000924008F020E0222319F00E944B0BE9CF4E
:101AD00089819A810E94C80B89819A81FC011682B2
:101AE0000F900F90DF91CF910895CF93DF93CDB7F3
:101AF000DEB760970FB6F894DEBF0FBECDBF9E83F2
:101B00008D8378876F830E94951A69877A878B8780
:101B10009C8749855A855A8349830E944B0B982F8D
:101B200081E09F3F09F080E0882311F081E018C038
:101B30000E94951A6D877E878F87988B2D853E85AD
:101B400089819A81A901481B590BCA019C838B8307
:101B50002B813C818F81988528173907F0F280E02E
:101B600060960FB6F894DEBF0FBECDBFDF91CF9168
:101B70000895CF93DF93CDB7DEB72E970FB6F894C5
:101B8000DEBF0FBECDBF9E838D830E94951A6F83EB
:101B9000788789879A874F8158855A8349830E941D
:101BA0004B0B282F8D819E81FC0122878D819E8188
:101BB000FC01928581E09F3F09F080E08823D9F005
:101BC0000E94951A6B877C878D879E872B853C8525
:101BD00089819A81A901481B590BCA019C838B8377
:101BE0008B819C818D329140D0F28D819E816FE0FE
:101BF0000E942D0A0EC08D819E81FC0182858E3F40
:101C000031F08D819E816DE00E942D0A02C081E03D
:101C100005C08D819E810E94C80B80E02E960FB674
:101C2000F894DEBF0FBECDBFDF91CF910895CF9363
:101C3000DF93CDB7DEB728970FB6F894DEBF0FBE9F
:101C4000CDBF9A8389834B835C836D837E83388782
:101C50002F838B819C81AD81BE81892B8A2B8B2B1D
:101C600031F489819A8162E10E942D0A77C08981CD
:101C70009A810E941D0A982F81E0933009F480E038
:101C8000882389F08B819C81AD81BE81072E79E00C
:101C9000880F991FAA1FBB1F7A95D1F7702D8B83D0
:101CA0009C83AD83BE838B819C81AD81BE81E981A4
:101CB000FA819C01AD0168E1CF010E94550B982F7C
:101CC00081E0992309F480E0882331F089819A81A9
:101CD00064E00E942D0A42C02F81388589819A8153
:101CE000A9016EEF0E94BC0E982F81E0992309F0A4
:101CF00080E0882391F589819A8168E572E00E94ED
:101D0000750D982F81E0992309F080E0882331F048
:101D100089819A8165E10E942D0A20C089819A817A
:101D200020E030E0A9016DE00E94550B882321F4EA
:101D30000E944B0B882311F081E001C080E08823D2
:101D400031F089819A8164E10E942D0A07C089815E
:101D50009A810E94C80B81E006C0000089819A81A7
:101D60000E94C80B80E028960FB6F894DEBF0FBE25
:101D7000CDBFDF91CF910895CF93DF9300D000D0F6
:101D800000D00F92CDB7DEB79C838B836D835F83CA
:101D90004E838D810E943E0B1A82198289819A811D
:101DA0008115924080F42E813F8189819A81820F32
:101DB000931FFC0180810E943E0B89819A810196CC
:101DC0009A838983EBCF8FEF0E943E0B8FEF0E94A7
:101DD0003E0B0E944B0B282F8B819C81FC0122879C
:101DE0008B819C81FC018285882F90E08F719927DF
:101DF000059759F08B819C8161E10E942D0A8B81AE
:101E00009C810E94C80B80E001C081E027960FB63C
:101E1000F894DEBF0FBECDBFDF91CF910895CF9371
:101E2000DF9300D000D0CDB7DEB79A8389837C835F
:101E30006B8389819A81019741F48B819C81019602
:101E400021F48BEA92E00E94410A0F900F900F90CC
:101E50000F90DF91CF910895CF93DF93CDB7DEB789
:101E60006FEF7FEF81E090E00E940F0FDF91CF9145
:101E70000895CF93DF9300D0CDB7DEB79A838983DF
:101E800089819A81FC01958181E0913009F080E09F
:101E90000F900F90DF91CF910895CF93DF9300D0F3
:101EA000CDB7DEB79A83898389819A81FC018389C2
:101EB0009489A589B68929813A81AC01BD01C901FE
:101EC0000E94EC100F900F90DF91CF910895CF9367
:101ED000DF9300D000D000D0CDB7DEB79A838983DE
:101EE0004B835C836D837E838B819C81AD81BE81BE
:101EF000072E79E0B695A795979587957A95D1F7AE
:101F0000702D282F89819A81FC0184818150822340
:101F100026960FB6F894DEBF0FBECDBFDF91CF91EE
:101F20000895CF93DF93CDB7DEB72A970FB6F89415
:101F3000DEBF0FBECDBF9A8389834B835C836D83E5
:101F40007E8389819A81FC014685578560897189E4
:101F50008B819C81AD81BE810297A109B109298144
:101F60003A81F9012585222F30E004C0880F991F9E
:101F7000AA1FBB1F2A95D2F7840F951FA61FB71F54
:101F80008F839887A987BA876F81788589859A8595
:101F90002A960FB6F894DEBF0FBECDBFDF91CF916A
:101FA0000895CF93DF93CDB7DEB78091B2048160FF
:101FB0008093B204DF91CF9108950F931F93CF9335
:101FC000DF9300D000D000D0CDB7DEB79A838983ED
:101FD0004B835C836D837E838B819C81AD81BE81CD
:101FE000E981FA810FEF1FEF2FEF3FE0AC01BD0158
:101FF000CF010E944F1826960FB6F894DEBF0FBE91
:10200000CDBFDF91CF911F910F910895CF93DF93B3
:1020100000D000D000D0CDB7DEB79A8389834B8340
:102020005C836D837E8389819A81FC0187898031FD
:1020300029F488EF9FEFA0E0B0E004C088EF9FEFA5
:10204000AFEFBFE021E04B815C816D817E8148175D
:1020500059076A077B0708F420E0822F26960FB6FF
:10206000F894DEBF0FBECDBFDF91CF910895CF931F
:10207000DF93CDB7DEB728970FB6F894DEBF0FBE5B
:10208000CDBF9A8389834B835C836D837E8338873E
:102090002F83E091B004F091B1042F8138858B81BA
:1020A0009C81AD81BE81AC01BD01CF010E94170EA4
:1020B00028960FB6F894DEBF0FBECDBFDF91CF914B
:1020C0000895CF93DF9300D0CDB7DEB79A8389838D
:1020D00089819A81DC015B96ED91FC9189819A81DD
:1020E00006969C0141E050E060E070E0CF010E9464
:1020F0004A15982F81E0992309F080E0882311F098
:1021000080E025C089819A81FC018789908DA18D0D
:10211000B28D892B8A2B8B2BC9F489819A81FC0182
:1021200086819781A085B18529813A81F901878BC4
:10213000908FA18FB28F89819A81DC0114968C9146
:10214000282F206889819A81FC01248381E00F90E7
:102150000F90DF91CF910895CF93DF9300D000D0FF
:1021600000D00F92CDB7DEB79A8389836B838981C4
:102170009A81FC0126853785408951892C833D83CE
:102180004E835F834B816C817D818E819F810E9414
:102190002C17982F81E0992309F080E0882319F00B
:1021A00080E090E010C089819A81FC018289882FAB
:1021B00090E0880F991F82959295907F9827807F55
:1021C000982780559D4F27960FB6F894DEBF0FBE17
:1021D000CDBFDF91CF9108950F931F93CF93DF93DE
:1021E000CDB7DEB760970FB6F894DEBF0FBECDBF98
:1021F0009A8789874B875C876D877E8789859A85D3
:102200000E947309882381F089859A85FC0183895E
:102210009489A589B6894B855C856D857E858417F3
:102220009507A607B70710F481E001C080E0882376
:1022300011F080E0ECC089859A85DC0115968C91BF
:10224000823069F429853A858B859C85AD85BE856C
:10225000F90182879387A487B58781E0D8C08B85F1
:102260009C85AD85BE85892B8A2B8B2B91F4898526
:102270009A85DC0116961D921D921D921C9219974B
:1022800089859A85FC01128613861486158681E05D
:10229000BEC089859A85FC0182859385A485B58514
:1022A0000197A109B10929853A85F901238D348D5A
:1022B000F9012585222F30E0275F3F4F04C0B695F6
:1022C000A795979587952A95D2F78D839E83AF839F
:1022D000B8878B859C85AD85BE850197A109B1091D
:1022E00029853A85F901238D348DF9012585222F21
:1022F00030E0275F3F4F04C0B695A7959795879527
:102300002A95D2F789839A83AB83BC8349815A810A
:102310006B817C818D819E81AF81B885481759077B
:102320006A077B0758F089859A85FC018285938529
:10233000A485B585892B8A2B8B2B79F489859A8581
:10234000FC018789908DA18DB28D29853A85F9018F
:1023500086839783A087B18714C049815A816B8196
:102360007C818D819E81AF81B8858A019B01081B8C
:10237000190B2A0B3B0BD901C80189839A83AB83C4
:10238000BC8389819A81AB81BC81AC01BD01415084
:1023900051096109710949835A836B837C8321E068
:1023A000892B8A2B8B2B09F420E0222321F18985AC
:1023B0009A85DC015B960D90BC91A02DB88BAF8700
:1023C00089859A859C012A5F3F4F89859A85FC0102
:1023D00086819781A085B185AC01BD018F859889E3
:1023E0000E948717982F81E0992309F080E08823C5
:1023F00041F280E00CC029853A858B859C85AD85AE
:10240000BE85F90182879387A487B58781E06096AE
:102410000FB6F894DEBF0FBECDBFDF91CF911F91F5
:102420000F910895CF93DF9300D000D0CDB7DEB7E2
:102430009C838B838B819C810E947309982F81E000
:10244000992309F080E0882311F080E075C08B812A
:102450009C81FC01848188230CF06CC08B819C8161
:1024600061E00E94AC109A83898389819A81892BCB
:1024700011F480E061C08B819C810E945F09982FDC
:1024800081E0992309F080E0882371F08B819C81A1
:10249000FC0183899489A589B68929813A81F9014A
:1024A000848F958FA68FB78F8B819C81FC01878944
:1024B000908DA18DB28D9C0189819A81FC01338F11
:1024C000228F8B819C81FC018789908DA18DB28D9B
:1024D000CD01AA27BB279C0189819A81FC01358BFC
:1024E000248B8091AE029091AF02892BC9F020918C
:1024F000AE023091AF0289819A81AC014A5E5F4F92
:1025000089819A814896BA01F901099589819A8150
:10251000FC01208D318D89819A81FC01338B228BC6
:102520008B819C81FC018481282F2F778B819C815A
:10253000FC0124830E94D1160F900F900F900F90F2
:10254000DF91CF910895CF93DF93CDB7DEB7A597F5
:102550000FB6F894DEBF0FBECDBF9F8B8E8B798FE9
:10256000688F5B8F4A8F888D998D9A8389838A8D36
:102570009B8D9C838B838E899F890E94390F882332
:1025800059F08E899F89DC0114968C91882F90E0F8
:1025900082709927892B11F481E001C080E08823A3
:1025A00009F043C28E899F89FC018481882F90E0C5
:1025B00084709927892B09F18E899F89DC011A96ED
:1025C0004D915D916D917C911D978E899F89FC0144
:1025D00083899489A589B689481759076A077B07B3
:1025E00061F08E899F890E944D0F982F81E0992379
:1025F00009F080E0882309F01AC28B819C81892B25
:1026000009F4B6C18E899F89DC015B962D913C91BE
:102610008E899F89FC0182859385A485B585AC014F
:10262000BD01C9010E94670F89878E899F89FC01BE
:1026300082859385A485B58591709B878A878985D6
:10264000882309F087C08A859B85892B09F082C081
:102650008E899F89FC0186819781A085B185892B10
:102660008A2B8B2B39F58E899F89FC018789908D68
:10267000A18DB28D892B8A2B8B2B69F48E899F8932
:102680000E946110982F81E0992309F080E088234F
:1026900009F460C0D5C18E899F89FC018789908D1E
:1026A000A18DB28D2E893F89F90186839783A087FA
:1026B000B18750C08E899F89DC015B960D90BC91DB
:1026C000A02DBDA3ACA38E899F89FC018681978133
:1026D000A085B1859E012E5E3F4FAC01BD018CA14E
:1026E0009DA10E948717982F81E0992309F080E02F
:1026F000882319F080E090E0ABC18E899F89DC01CE
:102700005B962D913C918A899B89AC89BD89AC01EE
:10271000BD01C9010E940610982F81E0992309F498
:1027200080E0882361F08E899F890E946110982F34
:1027300081E0992309F080E0882361F081C18A89D2
:102740009B89AC89BD892E893F89F901868397834E
:10275000A087B18720E032E08A859B85A901481BCC
:10276000590BCA019E838D832D813E818B819C8173
:102770008217930720F48B819C819E838D838E89A1
:102780009F89DC015B962D913C918E899F89FC018C
:1027900086819781A085B185AC01BD01C9010E94E8
:1027A000910F6C8F7D8F8E8F9F8F8985882F90E002
:1027B000A0E0B0E02C8D3D8D4E8D5F8D820F931F7C
:1027C000A41FB51F8C879D87AE87BF878D819E8193
:1027D00081159240D9F58091010190910201A0915B
:1027E0000301B09104014C855D856E857F85481796
:1027F00059076A077B0759F48FEF9FEFDC0180933D
:10280000010190930201A0930301B09304018E890A
:102810009F89DC015B96ED91FC9129813A818C8541
:102820009D85AE85BF85AC01BD01CF010E943710EB
:10283000982F81E0992309F080E0882309F0F9C0FE
:1028400089819A819E5F9A8389836EC08A859B85E0
:10285000892B61F58E899F89FC01428553856485AA
:1028600075858E899F89FC0183899489A589B6899C
:10287000481759076A077B07C8F00E94D116982F9E
:1028800081E0992309F080E0882309F0D4C08C8589
:102890009D85AE85BF858093010190930201A09331
:1028A0000301B09304010E94D10F17C02C853D8510
:1028B0004E855F8528A339A34AA35BA341E068A1A5
:1028C00079A18AA19BA10E942C17982F81E09923BE
:1028D00009F080E0882309F0B0C08A859B85805587
:1028E0009D4F98878F832F8138858D819E81820FA0
:1028F000931F998B888B2F81388588899989281710
:10290000390791F029813A81C90101969A83898317
:102910008F819885AC014F5F5F4F58874F83D901F6
:102920002C91FC012083E7CF2B813C818D819E81FE
:10293000A901481B590BCA019C838B838E899F89EF
:10294000DC011A964D915D916D917C911D978D8161
:102950009E81CC01A0E0B0E0840F951FA61FB71F99
:102960002E893F89F90182879387A487B58745CE51
:102970008E899F89DC011A964D915D916D917C91B4
:102980001D978E899F89FC0183899489A589B689C1
:1029900084179507A607B707D0F48E899F89FC0195
:1029A00082859385A485B5852E893F89F901838B1E
:1029B000948BA58BB68B8E899F89DC0114968C91A4
:1029C000282F20688E899F89FC01248315C080915F
:1029D000AE029091AF02892B79F08A8D9B8D892B65
:1029E00059F08E899F89DC0114968C91282F2068DC
:1029F0008E899F89FC0124838E899F89DC0114962E
:102A00008C91882F90E088709927892B59F08E89B6
:102A10009F890E941212982F81E0992309F080E08B
:102A2000882369F48A8D9B8D13C0000009C00000C3
:102A300007C0000005C0000003C0000001C0000086
:102A40008E899F8961E070E00E940C0880E090E030
:102A5000A5960FB6F894DEBF0FBECDBFDF91CF9124
:102A60000895CF93DF9300D00F92CDB7DEB79A834E
:102A700089836B839E012D5F3F4F89819A8141E05D
:102A800050E0B9010E94A3120F900F900F90DF91B8
:102A9000CF9108950F931F93CF93DF93CDB7DEB7F8
:102AA0006D970FB6F894DEBF0FBECDBF9F8B8E8B98
:102AB000488F598F6A8F7B8F3D8F2C8F8C8D9D8D8A
:102AC000FC0180819181A281B381892B8A2B8B2B80
:102AD00081F08C8D9D8DFC0180819181A281B381DB
:102AE0000196A11DB11D89839A83AB83BC831D828E
:102AF00016C08E899F89FC0180819181A281B3815A
:102B000089839A83AB83BC8321E0888D998DAA8DBC
:102B1000BB8D0197A105B10509F020E02D838981C6
:102B20009A81AB81BC818E839F83A887B9878E8968
:102B30009F89FC0181859285A385B4850196A11D9D
:102B4000B11D8E879F87A88BB98B1A861B861C8622
:102B50001D868E899F89FC0181859285A385B48518
:102B60004A855B856C857D85481759076A077B0711
:102B700010F080E00BC14E815F81688579858E857C
:102B80009F85A889B98984179507A607B70780F498
:102B900082E090E0A0E0B0E08E839F83A887B987B1
:102BA0008E819F81A885B98589839A83AB83BC83F5
:102BB0009E012E5E3F4F8E819F81A885B985EE894B
:102BC000FF89AC01BD01CF010E948717982F81E0DA
:102BD000992309F080E0882311F080E0D7C08A892A
:102BE0009B89AC89BD89892B8A2B8B2B61F08E81C7
:102BF0009F81A885B9850196A11DB11D89839A83FE
:102C0000AB83BC832FC04E815F81688579858981C4
:102C10009A81AB81BC818A019B01081B190B2A0B8D
:102C20003B0BD901C8010196A11DB11D488D598DDD
:102C30006A8D7B8D481759076A077B0799F48E8147
:102C40009F81A885B9852E893F89AC01BD01C90145
:102C50000E94DD0F982F81E0992309F080E08823FE
:102C6000C1F419C08A859B85AC85BD850196A11DDF
:102C7000B11D8A879B87AC87BD878E819F81A88580
:102C8000B9850196A11DB11D8E839F83A887B98741
:102C900060CF80E07BC04E815F81688579858981C6
:102CA0009A81AB81BC8184179507A607B70748F5C1
:102CB0008E819F81A885B9850197A109B1094E81AF
:102CC0005F8168857985EE89FF898A019B01AC0166
:102CD000BD01CF010E944F18982F81E0992309F080
:102CE00080E0882311F080E051C08E819F81A8850B
:102CF000B9850197A109B1098E839F83A887B987F8
:102D0000CACF8C8D9D8DFC0180819181A281B38180
:102D1000892B8A2B8B2BE9F08C8D9D8DFC0180817A
:102D20009181A281B38149815A816B817C81EE8935
:102D3000FF898A019B01AC01BD01CF010E944F18A0
:102D4000982F81E0992309F080E0882311F080E03A
:102D50001DC02C8D3D8D89819A81AB81BC81F9018B
:102D600080839183A283B3838D81882371F08981CD
:102D70009A81AB81BC810196A11DB11D2E893F892D
:102D8000F90180839183A283B38381E06D960FB6AE
:102D9000F894DEBF0FBECDBFDF91CF911F910F9191
:102DA0000895CF93DF93CDB7DEB78091B204882327
:102DB00009F44EC0E091B004F091B104809101019A
:102DC00090910201A0910301B091040120EB32E047
:102DD000AC01BD01CF010E94170E982F81E099230D
:102DE00009F080E0882311F080E033C08091B304C3
:102DF0009091B404A091B504B091B604892B8A2BAC
:102E00008B2B21F1E091B004F091B1048091B304D7
:102E10009091B404A091B504B091B60420EB32E0D7
:102E2000AC01BD01CF010E94170E982F81E09923BC
:102E300009F080E0882311F080E00BC01092B30409
:102E40001092B4041092B5041092B6041092B20419
:102E500081E0DF91CF910895CF93DF9300D000D030
:102E60000F92CDB7DEB769837A838B839C834D83C2
:102E70008091010190910201A0910301B0910401A0
:102E800049815A816B817C81481759076A077B0702
:102E900079F10E94D116982F81E0992309F080E002
:102EA000882311F080E02BC0E091B004F091B104D0
:102EB00089819A81AB81BC8120EB32E0AC01BD01FC
:102EC000CF010E94030C982F81E0992309F080E044
:102ED000882311F080E013C089819A81AB81BC8185
:102EE0008093010190930201A0930301B093040128
:102EF0009091B2048D81892B8093B20481E00F9070
:102F00000F900F900F900F90DF91CF910895CF9376
:102F1000DF93CDB7DEB760970FB6F894DEBF0FBE74
:102F2000CDBF9E838D834F83588769877A873C877F
:102F30002B878D819E81FC0181859285A385B48537
:102F40000196A11DB11D4F81588569857A85841729
:102F50009507A607B70710F480E098C08D819E8181
:102F6000FC0183899489A589B68989839A83AB8377
:102F7000BC838D819E81DC0157968C91803149F410
:102F80008F819885A985BA85892F9A2FAB2FBB276A
:102F90000CC08F819885A985BA85689416F8B69576
:102FA000A795979587951694D1F749815A816B819A
:102FB0007C81840F951FA61FB71F89839A83AB83DB
:102FC000BC838091010190910201A0910301B09115
:102FD000040149815A816B817C81481759076A072E
:102FE0007B07C1F089819A81AB81BC818D879E87E7
:102FF000AF87B88B40E06D857E858F8598890E946C
:103000002C17982F81E0992309F080E0882311F094
:1030100080E03CC08D819E81DC0157968C9180318F
:10302000C9F48F819885A985BA859927AA27BB27D6
:10303000880F991F80559D4FFC0180819181CC01A3
:10304000A0E0B0E02B853C85F90180839183A283C9
:10305000B3831BC08F819885A985BA858F779927FF
:10306000AA27BB27880F991F880F991F80559D4F4E
:10307000FC0180819181A281B381BF702B853C8549
:10308000F90180839183A283B38381E060960FB6B8
:10309000F894DEBF0FBECDBFDF91CF9108950F939F
:1030A0001F93CF93DF93CDB7DEB762970FB6F89437
:1030B000DEBF0FBECDBF9E838D834F835887698748
:1030C0007A870B871C872D873E878F819885A985F6
:1030D000BA850297A105B10510F480E0C2C08D81C8
:1030E0009E81FC0181859285A385B4850196A11DF1
:1030F000B11D4F81588569857A8584179507A60784
:10310000B70710F480E0ADC08D819E81FC018389FA
:103110009489A589B68989839A83AB83BC838D8181
:103120009E81DC0157968C91803149F48F8198857E
:10313000A985BA85892F9A2FAB2FBB270CC08F8109
:103140009885A985BA85689416F8B695A795979538
:1031500087951694D1F749815A816B817C81840FC0
:10316000951FA61FB71F89839A83AB83BC83809169
:10317000010190910201A0910301B09104014981E4
:103180005A816B817C81481759076A077B07C1F018
:1031900089819A81AB81BC818F87988BA98BBA8BEF
:1031A00040E06F85788989899A890E942C17982F29
:1031B00081E0992309F080E0882311F080E051C07C
:1031C0008D819E81DC0157968C91803189F48F81AD
:1031D0009885A985BA859927AA27BB272B853C8581
:1031E000880F991F80559D4FFC013183208318C0A3
:1031F0008F819885A985BA858F779927AA27BB27BC
:10320000880F991F880F991F9C0120553D4F8B8572
:103210009C85AD85BE85F90180839183A283B383AC
:103220000E94D10F8D819E81DC0152968C9182305B
:10323000B8F08D819E81FC01458156816781708542
:1032400089819A81AB81BC81840F951FA61FB71F0E
:103250008093B3049093B404A093B504B093B604E0
:1032600081E062960FB6F894DEBF0FBECDBFDF914E
:10327000CF911F910F910895CF93DF93CDB7DEB714
:103280000E9454190E947F1964E670E080E090E08B
:103290000E94331B0E94A719882319F00E948F19DE
:1032A000F3CF0E947F19F0CFCF93DF93CDB7DEB776
:1032B00084E290E0FC01208184E290E02863FC013C
:1032C000208385E290E0FC01208185E290E0277C6C
:1032D000FC0120838AE290E0FC0120818AE290E0F8
:1032E0002460FC0120838BE290E0FC0120818BE2D2
:1032F00090E02460FC012083DF91CF910895CF936B
:10330000DF93CDB7DEB785E290E0FC01208185E256
:1033100090E02863FC012083DF91CF910895CF9343
:10332000DF93CDB7DEB785E290E0FC018081282FE6
:10333000277C85E290E0FC01808180958873282BB2
:1033400085E290E0FC012083DF91CF910895CF9337
:10335000DF93CDB7DEB789E290E0FC018081882F52
:1033600090E08470992721E0892B09F020E0822FDA
:10337000DF91CF910895CF93DF93CDB7DEB7DF9183
:10338000CF9108951F920F920FB60F9211242F9391
:103390003F934F935F936F937F938F939F93AF93DD
:1033A000BF93EF93FF93CF93DF93CDB7DEB78091B9
:1033B000050190910601FC010995DF91CF91FF91E4
:1033C000EF91BF91AF919F918F917F916F915F919D
:1033D0004F913F912F910F900FBE0F901F90189516
:1033E0001F920F920FB60F9211242F933F934F937A
:1033F0005F936F937F938F939F93AF93BF93EF935D
:10340000FF93CF93DF93CDB7DEB780910701909103
:103410000801FC010995DF91CF91FF91EF91BF91D8
:10342000AF919F918F917F916F915F914F913F915C
:103430002F910F900FBE0F901F901895CF93DF9391
:10344000CDB7DEB7DF91CF9108950F920FB60F92EF
:103450001F9211248F939F93AF93BF93CF93DF93CA
:10346000CDB7DEB72597DEBFCDBF8091BB0490916D
:10347000BC04A091BD04B091BE0489839A83AB8340
:10348000BC838091BF048D8389819A81AB81BC818B
:103490000196A11DB11D89839A83AB83BC838D8165
:1034A0008D5F8D838D818D3770F08D818D578D83EC
:1034B00089819A81AB81BC810196A11DB11D89834F
:1034C0009A83AB83BC838D818093BF0489819A8169
:1034D000AB81BC818093BB049093BC04A093BD04DA
:1034E000B093BE048091B7049091B804A091B90440
:1034F000B091BA040196A11DB11D8093B7049093B9
:10350000B804A093B904B093BA040F900F900F9031
:103510000F900F90DF91CF91BF91AF919F918F91BD
:103520001F900F900FBE0F901895CF93DF93CDB7DC
:10353000DEB729970FB6F894DEBF0FBECDBF8FE57B
:1035400090E0FC0180818983F8948091BB04909184
:10355000BC04A091BD04B091BE048A839B83AC835C
:10356000BD838FE590E02981FC0120838A819B81C6
:10357000AC81BD818E839F83A887B9876E817F814F
:103580008885998529960FB6F894DEBF0FBECDBF0A
:10359000DF91CF910895CF93DF93CDB7DEB72A9710
:1035A0000FB6F894DEBF0FBECDBF8FE590E0FC01F3
:1035B00080818D83F8948091B7049091B804A09194
:1035C000B904B091BA0489839A83AB83BC8386E43F
:1035D00090E0FC0180818E8385E390E0FC01808196
:1035E000882F90E081709927892B71F08E818F3F11
:1035F00059F089819A81AB81BC810196A11DB11DD1
:1036000089839A83AB83BC838FE590E02D81FC0195
:10361000208389819A81AB81BC814427582F692FEF
:103620007A2F8E81882F90E0A0E0B0E0840F951F64
:10363000A61FB71F880F991FAA1FBB1F880F991FAE
:10364000AA1FBB1F8F839887A987BA876F81788548
:1036500089859A852A960FB6F894DEBF0FBECDBF36
:10366000DF91CF910895CF93DF93CDB7DEB7609709
:103670000FB6F894DEBF0FBECDBF6D837E838F8300
:1036800098870E94CB1A6D877E878F87988B2D85B0
:103690003E854F85588929833A834B835C833BC0A1
:1036A0000E941E1A17C08D819E81AF81B885019737
:1036B000A109B1098D839E83AF83B88789819A81DF
:1036C000AB81BC8188519C4FAF4FBF4F89839A8398
:1036D000AB83BC838D819E81AF81B885892B8A2B7A
:1036E0008B2BC9F00E94CB1A69877A878B879C87BE
:1036F00089819A81AB81BC8129853A854B855C851E
:10370000281B390B4A0B5B0BDA01C901883E934039
:10371000A105B10540F68D819E81AF81B885892BC9
:103720008A2B8B2B09F0BCCF60960FB6F894DEBFC6
:103730000FBECDBFDF91CF910895CF93DF930F924E
:10374000CDB7DEB789838981882F90E088309105D5
:1037500009F452C0893091050CF057C087309105AB
:1037600009F440C0883091050CF04FC084309105B9
:10377000D9F0853091050CF048C08330910551F0A7
:10378000843091050CF041C081309105B9F0029769
:10379000F9F03BC080E890E0FC01208180E890E0F7
:1037A0002F77FC01208331C080E890E0FC0120816C
:1037B00080E890E02F7DFC01208327C084E490E026
:1037C000FC01208184E490E02F77FC0120831DC060
:1037D00084E490E0FC01208184E490E02F7DFC01F2
:1037E000208313C080EB90E0FC01208180EB90E00F
:1037F0002F77FC01208309C080EB90E0FC01208141
:1038000080EB90E02F7DFC0120830F90DF91CF9122
:103810000895CF93DF93CDB7DEB765970FB6F894D1
:10382000DEBF0FBECDBF8C8B6D8B8C89882F90E057
:1038300085569F4F9A83898389819A81FC0184915F
:103840008B838B818C838C89882F90E089579F4F45
:103850009E838D838D819E81FC0184918F838F81D6
:1038600088878C89882F90E08D589F4F9A87898709
:1038700089859A85FC0184918B878B858C878C85C3
:10388000882309F445C08C81882319F08C810E941B
:103890009D1B8C85882F90E0880F991F87599F4F1B
:1038A0009E878D878D859E85FC0125913491CF0162
:1038B000388B2F879E878D878F8598899A8B898BE8
:1038C0008FE590E0FC0180818B8BF8948D898823B3
:1038D00071F489899A89FC018081982F8885809567
:1038E0008923282F89899A89FC0120830BC0898923
:1038F0009A89FC0190818885292F282B89899A89AA
:10390000FC0120838FE590E02B89FC01208301C01E
:10391000000065960FB6F894DEBF0FBECDBFDF91F5
:10392000CF910895CF93DF9300D000D0CDB7DEB70D
:103930009B838A836C8380910B05282F30E08C81D8
:10394000882F90E0820F931F819714F081E02CC0A4
:103950008091C004843011F082E026C0198219C021
:103960008981882F90E02A813B81280F391F80911F
:103970000B05482F50E08981882F90E0840F951F18
:10398000F901208186519B4FFC01208389818F5F43
:10399000898399818C81981718F390910B058C81FC
:1039A000890F80930B0580E00F900F900F900F9080
:1039B000DF91CF910895CF93DF930F92CDB7DEB70C
:1039C00089838981882331F08CEB90E025ECFC0120
:1039D000208305C08CEB90E025E8FC0120830F904C
:1039E000DF91CF910895CF93DF93CDB7DEB78CEB06
:1039F00090E025EDFC0120838CEB90E0FC018081C0
:103A0000882F90E080719927892BB1F71092C0041C
:103A1000DF91CF910895CF93DF93CDB7DEB78CEBD5
:103A200090E025ECFC0120831092C004DF91CF913F
:103A300008951F920F920FB60F9211242F933F9368
:103A40004F935F936F937F938F939F93AF93BF93A6
:103A5000EF93FF93CF93DF93CDB7DEB789EB90E081
:103A6000FC018081882F90E0887F9927893C91050F
:103A70000CF023C199230CF421C1092E000CAA0BD0
:103A8000BB0B893C9105A105B10508F017C186540F
:103A9000914EFC010C94821E8BEB90E02091C104AE
:103AA000FC01208381E00E94DB1C08C19091E804A6
:103AB0008091E9049817A0F48091E80491E0980FB0
:103AC0009093E804282F30E08BEB90E028533B4F95
:103AD000F9012081FC01208381E00E94DB1CEEC003
:103AE0008091C204882319F00E94F31CE7C081E092
:103AF0008093C3048CEB90E024EAFC0120831092B5
:103B0000C004DCC080E280932D050E94F31CD6C067
:103B100080E380932D050E94F31CD0C088E380933E
:103B20002D050E940B1DCAC02BEB30E08091E804EC
:103B300091E0980F9093E804882F90E0F90120819C
:103B400088539B4FFC0120839091E8048091E90405
:103B5000981720F481E00E94DB1CB0C080E00E9436
:103B6000DB1CACC02BEB30E08091E80491E0980FB7
:103B70009093E804882F90E0F901208188539B4FAF
:103B8000FC0120838091C204882319F00E94F31C59
:103B900095C081E08093C3048CEB90E024EAFC01A3
:103BA00020831092C0048AC00E94F31C87C083E067
:103BB0008093C00410922C0581E00E94DB1C7EC023
:103BC00080912C058032A0F42BEB30E080912C0505
:103BD00091E0980F90932C05882F90E0F9012081B7
:103BE000845F9A4FFC01208381E00E94DB1C66C049
:103BF00080E00E94DB1C62C00E940B1D80912C059E
:103C0000803240F480912C05882F90E0845F9A4F99
:103C1000FC0110822091C6043091C70480912C05CC
:103C2000882F90E0BC018CE095E0F9010995109295
:103C30002C0544C080E00E94DB1C40C084E08093DF
:103C4000C00410920A0510920B058091C404909153
:103C5000C504FC01099580910B05882329F481E0B6
:103C600080930B051092EA0480910A0591E0980F69
:103C700090930A05282F30E08BEB90E026513B4FC4
:103C8000F9012081FC01208390910A0580910B05A8
:103C9000981720F481E00E94DB1C10C080E00E9495
:103CA000DB1C0CC081E00E94DB1C1092C00406C02B
:103CB00010922D050E94F31C01C00000DF91CF91EE
:103CC000FF91EF91BF91AF919F918F917F916F91F4
:103CD0005F914F913F912F910F900FBE0F901F90CA
:103CE0001895CF93DF93CDB7DEB70E942C0F0E94BB
:103CF000100A0E9452090E9481050E94AB04DF91C4
:103D0000CF910895EE0FFF1F0590F491E02D0994D7
:103D100081E090E0F8940C94B81EFC010190002022
:103D2000E9F7809590958E0F9F1F0895A1E21A2EB6
:103D3000AA1BBB1BFD010DC0AA1FBB1FEE1FFF1F4F
:103D4000A217B307E407F50720F0A21BB30BE40B9F
:103D5000F50B661F771F881F991F1A9469F76095E6
:103D60007095809590959B01AC01BD01CF010895A0
:103D7000F894FFCF581E5E1E5E1E5E1E5E1E5E1E07
:103D80005E1E5E1E4C1D5E1E5E1E5E1E5E1E5E1E66
:103D90005E1E5E1E4C1D5E1E5E1E5E1E5E1E5E1E56
:103DA0005E1E5E1E561D5E1E5E1E5E1E5E1E5E1E3C
:103DB0005E1E5E1E821D5E1E5E1E5E1E5E1E5E1E00
:103DC0005E1E5E1E561D5E1E5E1E5E1E5E1E5E1E1C
:103DD0005E1E5E1E881D5E1E5E1E5E1E5E1E5E1EDA
:103DE0005E1E5E1E8E1D5E1E5E1E5E1E5E1E5E1EC4
:103DF0005E1E5E1EA41D5E1E5E1E5E1E5E1E5E1E9E
:103E00005E1E5E1ED41D5E1E5E1E5E1E5E1E5E1E5D
:103E10005E1E5E1E941D5E1E5E1E5E1E5E1E5E1E8D
:103E20005E1E5E1EB21D5E1E5E1E5E1E5E1E5E1E5F
:103E30005E1E5E1ED71D5E1E5E1E5E1E5E1E5E1E2A
:103E40005E1E5E1ED71D5E1E5E1E5E1E5E1E5E1E1A
:103E50005E1E5E1ED71D5E1E5E1E5E1E5E1E5E1E0A
:103E60005E1E5E1ED71D5E1E5E1E5E1E5E1E5E1EFA
:103E70005E1E5E1EE01D5E1E5E1E5E1E5E1E5E1EE1
:103E80005E1E5E1E1A1E5E1E5E1E5E1E5E1E5E1E96
:103E90005E1E5E1EE01D5E1E5E1E5E1E5E1E5E1EC1
:103EA0005E1E5E1E1A1E5E1E5E1E5E1E5E1E5E1E76
:103EB0005E1E5E1EFC1D5E1E5E1E5E1E5E1E5E1E85
:103EC0005E1E5E1E1E1E5E1E5E1E5E1E5E1E5E1E52
:103ED0005E1E5E1E1E1E5E1E5E1E5E1E5E1E5E1E42
:103EE0005E1E5E1E341E5E1E5E1E5E1E5E1E5E1E1C
:103EF0005E1E5E1E521E5E1E5E1E5E1E5E1E5E1EEE
:063F00005E1E5E1E521E53
:103F0600FFFFFFFFFFBB19BB19000000002802BF1F
:103F1600058F01C4010701540128010000000006B5
:103F260008BF051503230306080608060800000057
:103F3600000205000000000608000000000608BF99
:103F46000515032303000000003B08750815032927
:103F560009BE08D6080209000000003115BF051584
:043F6600032303002E
:00000001FF
