:100000000C9459000C94C5090C949E090C94810021
:100010000C9481000C9481000C9481000C940D0AC6
:100020000C9481000C9481000C9481000C9481004C
:100030000C9481000C9481000C9481000C9481003C
:100040000C9456090C9481000C94B30A0C948D0AFC
:100050000C9481000C9481000C9481000C9481001C
:100060000C943D080C94810002000000002500283B
:10007000002B00040404040404040402020202022B
:10008000020303030303030102040810204080015C
:1000900002040810200102040810200000000800DB
:1000A000020100000304070000000000000000003F
:1000B000F50711241FBECFEFD8E0DEBFCDBF11E0A2
:1000C000A0E0B1E0E0EDF5E102C005900D92A832AC
:1000D000B107D9F724E0A8E2B1E001C01D92AE3823
:1000E000B207E1F710E0C9E5D0E004C02197FE01B6
:1000F0000E94E00AC835D107C9F70E94EC090C94A8
:10010000E60A0C94000085ED8093BC008091BC0051
:1001100084FDFCCF10927C03089590E0FC01E5562D
:10012000FF4F2491FC01E957FF4F3491FC01ED583A
:10013000FF4FE491EE23D9F0222349F0243031F12E
:10014000B8F4223059F12330D9F0213019F1F0E020
:10015000EE0FFF1FE759FF4FA591B4918FB7F894A9
:10016000EC91611124C030953E233C938FBF0895DC
:100170002730B9F0283059F78091B0008F7D14C036
:10018000809180008F7780938000E1CF8091800004
:100190008F7DF9CF84B58F7784BDD9CF84B58F7D1E
:1001A000FBCF8091B0008F778093B000D0CF3E2BF3
:1001B000DCCF089585B1817F85B9089561E0FC01A8
:1001C00084810E948D0080912D01811110922D015A
:1001D00008958EBD00000DB407FEFDCF8EB50895C5
:1001E0008FEF0C94E9000F931F93CF93DF93EC01F3
:1001F0008FB7F8940091A2031091A3032091A40358
:100200003091A5038FBF0E94F0008F3FB1F02FB750
:10021000F8948091A2039091A303A091A403B091BC
:10022000A5032FBF801B910B8C179D0760F380E007
:10023000DF91CF911F910F91089581E0F9CFCF9376
:10024000DF93EC018E81882389F08F8198859C0152
:100250002F5F3F4F38872F838230924018F40E94DF
:10026000F000F3CFCE010E94DE001E82DF91CF911D
:100270000895CF92DF92EF92FF920F931F93CF9347
:10028000DF93EC01162F69017A010E941F01809112
:100290002D01811109C081E080932D019091A60369
:1002A0008091A7039CBD8DBD60E08C810E948D0074
:1002B0008CE291E00E94F300812F80640E94E900AB
:1002C00008E110E0D701C601002E04C0B695A7953D
:1002D000979587950A94D2F70E94E9000850110972
:1002E000083F8FEF180771F78FEF0E94E90010E0C9
:1002F0000E94F0008A8787FF04C01F3F11F01F5F34
:10030000F7CFDF91CF911F910F91FF90EF90DF908A
:10031000CF900895CF92DF92EF92FF920F931F93A9
:10032000CF93DF93EC016A017B01890182E1C11463
:10033000D104E104F10499F08B85833039F089E030
:10034000CC0CDD1CEE1CFF1C8A95D1F7A701960191
:1003500068E1CE010E943901882319F084E08D8381
:100360002FC08EEF0E94E90078011E5FF701819196
:100370007F010E94E900E016F106C1F78FEF0E94AD
:10038000E9008FEF0E94E9000E94F0008A878F71D8
:10039000853089F488E592E00E94F3008823A9F073
:1003A00020E030E0A9016DE0CE010E9439018823F0
:1003B00071F084E1D4CF81E18D83CE010E94DE0013
:1003C000CE010E94DE0080E00AC085E1C8CF0E9415
:1003D000F0008111EECFCE010E94DE0081E0DF91BE
:1003E000CF911F910F91FF90EF90DF90CF900895E4
:1003F00080912E01882389F14091010150910201E1
:10040000609103017091040123E331E090E080E00A
:100410000E948A01811102C080E0089540912F015D
:1004200050913001609131017091320141155105B7
:100430006105710581F023E331E090E080E00E94E6
:100440008A01882349F310922F01109230011092F3
:1004500031011092320110922E0181E00895AF9285
:10046000BF92CF92DF92EF92FF920F931F93CF93A1
:100470006B017C01C42F8091010190910201A09138
:100480000301B09104018C159D05AE05BF0509F46B
:10049000A6C00E94F8018823E1F18091060088231C
:1004A000A1F08091000090910100A0910200B09114
:1004B0000300C816D906EA06FB0639F48091070046
:1004C00090910800892B09F460C0C0920000D0927E
:1004D0000100E0920200F092030080910B00A7015E
:1004E0009601833039F099E0220F331F441F551FC6
:1004F0009A95D1F761E190E080E00E94390188236C
:1005000091F083E08093050090E080E00E94DE009F
:1005100080E0CF911F910F91FF90EF90DF90CF90EF
:10052000BF90AF9008958FB7F8940091A2031091F7
:10053000A3032091A4033091A5038FBF0E94F00074
:1005400080930A008F3FC1F42FB7F8948091A203E3
:100550009091A303A091A403B091A5032FBF801B8A
:10056000910B8D32914050F38FE08093050090E025
:1005700080E00E94DE00C8CF8E3FC1F510920800D7
:100580001092070081E08093060003E311E083E30B
:10059000A82E83E0B82E0E94F000F80181938F010D
:1005A000AE16BF06C1F780910700909108009E5FCC
:1005B000909308008093070020910900222319F0EE
:1005C0008115924020F090E080E00E941F01C092CF
:1005D0000101D0920201E0920301F09204014091E6
:1005E0002E014C2B40932E0181E093CF8DE0BDCFA7
:1005F0006F927F928F929F92AF92BF92CF92DF9233
:10060000EF92FF920F931F93CF93DF93EC016A0158
:100610007B01390182E0C816D104E104F10480F4C1
:1006200080E0DF91CF911F910F91FF90EF90DF90CD
:10063000CF90BF90AF909F908F907F906F900895D4
:1006400089859A85AB85BC850196A11DB11D8C1548
:100650009D05AE05BF0520F38B889C88AD88BE88BC
:100660008F898031E1F5BB27AF2D9E2D8D2D880E12
:10067000991EAA1EBB1E8091010190910201A091BA
:100680000301B091040188169906AA06BB0689F5F4
:100690008F898031B1F5DD24EE24FF24F601EE0FC1
:1006A000FF1FED5CFE4F1183008380912E0181605E
:1006B00080932E018A89823080F08D819E81AF8166
:1006C000B885880D991DAA1DBB1D80932F0190939D
:1006D0003001A0933101B093320181E0A2CFDB0160
:1006E000CA0127E0B695A795979587952A95D1F7E2
:1006F000BECF40E0C501B4010E942F028111C8CFD6
:100700008FCFE894C7F8DD24EE24FF24F601EE0F26
:10071000FF1FEE0FFF1FED5CFE4F0083118362820F
:100720007382C3CF8F929F92AF92BF92CF92DF928C
:10073000EF92FF920F931F93CF93DF9300D000D0DF
:1007400000D0CDB7DEB78C016A017B012D833E83DB
:10075000FC0181859285A385B4850196A11DB11DFB
:100760008C159D05AE05BF05A0F480E026960FB65A
:10077000F894DEBF0FBECDBFDF91CF911F910F91D7
:10078000FF90EF90DF90CF90BF90AF909F908F90B1
:10079000089543895489658976898789803199F5D7
:1007A000BB27AF2D9E2D8D2D4C015D01840E951E16
:1007B000A61EB71E89829A82AB82BC8280910101FB
:1007C00090910201A0910301B0910401881599054F
:1007D000AA05BB0511F5F8018789803141F5DD24B3
:1007E000EE24FF24F601EE0FFF1FED5CFE4F80812B
:1007F0009181B0E0A0E0ED81FE8180839183A283AE
:10080000B38381E0B3CFD701C60127E0B695A795A2
:10081000979587952A95D1F7C7CF40E069817A816E
:100820008B819C810E942F028111D5CF9ECFE894AD
:10083000C7F8DD24EE24FF24F601EE0FFF1FEE0FB4
:10084000FF1FED5CFE4F80819181A281B381BF705B
:10085000D2CF3F924F925F926F927F928F929F92F0
:10086000AF92BF92CF92DF92EF92FF920F931F93BE
:10087000CF93DF93CDB7DEB728970FB6F894DEBFDE
:100880000FBECDBF5C01DC015B968D909C905C97A8
:100890001696CD90DD90ED90FC901997C114D1047F
:1008A000E104F10409F44DC0BFEFCB1ADB0AEB0AF7
:1008B000FB0A312CF40181859285A385B4859C01C6
:1008C000AD012F5F3F4F4F4F5F4F2D833E834F83CF
:1008D0005887412C512C3201F40181859285A385E2
:1008E000B485481659066A067B06F0F52D813E81CF
:1008F0004F8158852C153D054E055F0528F482E093
:10090000C82ED12CE12CF12C9E012F5F3F4FB70157
:10091000A601C4010E949203882331F189819A8142
:10092000AB81BC81892B8A2B8B2B99F03FEFC31AAB
:10093000D30AE30AF30A4FEF441A540A640A740A0A
:10094000CBCFF401C080D180E280F3803324339494
:10095000B1CF0FEF1FEF2FEF3FE0B701A601C401AA
:100960000E94F802811119C080E028960FB6F89411
:10097000DEBF0FBECDBFDF91CF911F910F91FF90D2
:10098000EF90DF90CF90BF90AF909F908F907F902F
:100990006F905F904F903F900895D50116964D91BE
:1009A0005D916D917C911997411551056105710516
:1009B000C9F4F501C682D782E086F18631101AC0EB
:1009C000F5018789908DA18DB28D892B8A2B8B2B78
:1009D00039F4C78AD08EE18EF28E84818068848358
:1009E00081E0C3CF97018601C4010E94F802811102
:1009F000E0CFBACFD701C6010196A11DB11DF40108
:100A000080839183A283B383DBCF4F925F926F92F7
:100A10007F928F929F92AF92BF92CF92DF92EF928E
:100A2000FF920F931F93CF93DF93CDB7DEB7299734
:100A30000FB6F894DEBF0FBECDBF8C016D83DC0115
:100A400015968C911597813009F033C114968C91CD
:100A5000149781FF2EC182FF12C01A968D909D902F
:100A6000AD90BC901D9753964D905D906D907C908D
:100A70005697481459046A047B0409F0B7C0F8017A
:100A8000838D948D4285538564857585DC0114962C
:100A9000DC90DA944A015B0129E0B694A79497941C
:100AA00087942A95D1F7D8207A01B1E0FB224681BC
:100AB000578160857185DD2009F40EC1D8015B96F0
:100AC0004D915C915C9716968D919D910D90BC9186
:100AD000A02D0297A109B109FA01258504C0880F4C
:100AE000991FAA1FBB1F2A95D2F746855785608993
:100AF0007189840F951FA61FB71F9C01AD012D0D95
:100B0000311D411D511D2E833F8348875987E114B4
:100B1000F10409F01EC1D8011A964D915D916D91B5
:100B20007C911D9753968D919D910D90BC91A02D18
:100B3000481759076A077B0708F40BC10E94F801A0
:100B4000882309F4B6C02E813F81488559852093BA
:100B500001013093020140930301509304018091FD
:100B60002E01816080932E01F701ED5CFE4F8D8197
:100B70008083F80182859385A485B5850196A11DA2
:100B8000B11D82879387A487B58743895489658976
:100B90007689481759076A077B0738F42481838BC5
:100BA000948BA58BB68B20682483D80114968C91E6
:100BB000149783FDD8C0EE24E394F12CC701299645
:100BC0000FB6F894DEBF0FBECDBFDF91CF911F915E
:100BD0000F91FF90EF90DF90CF90BF90AF909F90DC
:100BE0008F907F906F905F904F90089541145104C3
:100BF0006104710461F4F80116821782108611866F
:100C00001A961D921D921D921C921D9738CF5B96CD
:100C1000ED91FC91858590E00996B501A4014150C4
:100C2000510961097109082E04C076956795579599
:100C300047950A94D2F773016201B1E0CB1AD1084B
:100C4000E108F10804C0F694E794D794C7948A9514
:100C5000D2F7C416D506E606F70620F089288A28BA
:100C60008B2879F5F8018789908DA18DB28D8683C7
:100C70009783A087B1875801F6E0AF0EB11CD80169
:100C80005B968D919C915C9716964D915D916D91BF
:100C90007C911997C114D104E104F104B9F09501D4
:100CA0000E949203B1E0CB1AD108E108F10881114A
:100CB000E6CF81E090E0F80193838283F12CE12C70
:100CC0007DCFC41AD50AE60AF70AD5CFF8014286C5
:100CD000538664867586D3CEE114F10409F0EECE16
:100CE000411551056105710571F48789908DA18DBC
:100CF000B28D0097A105B10531F5C8010E94290404
:100D00008111DCCED6CF9E012F5F3F4F0E94920310
:100D1000882309F453CF89819A81AB81BC81F80182
:100D2000238D348DF901278948EF5FEF6FEF7FE066
:100D3000203121F448EF5FEF60E070E08417950701
:100D4000A607B707D0F6F80186839783A087B187F7
:100D5000B5CE41E06E817F81888599850E942F0202
:100D6000811102CFA6CFF8019581992309F4A1CF73
:100D700087FF3EC01E962D913D914D915C915197FC
:100D80002E833F834887598741E06E817F81888524
:100D900099850E942F02882309F48BCFD80152969F
:100DA000EC91B0E2EB9FF0011124ED5CFE4FD80115
:100DB00015968C911597823050F453964D915D9114
:100DC0006D917C915697448F558F668F778FD801A0
:100DD00057964D915D916D917C915A97538F428FAB
:100DE000758B648B14968C9114978F7714968C93D3
:100DF0000E94F8018111DFCE5CCFCF92DF92EF929B
:100E0000FF920F931F93CF93DF937C016A0110E051
:100E100000E00C151D0581F0EB01D701ED91FC916F
:100E20000190F081E02D6991C7010995892B21F08E
:100E30000F5F1F4FBE01EDCFC801DF91CF911F9112
:100E40000F91FF90EF90DF90CF900895089590E07C
:100E500080E00895FC01538D448D252F30E0842FD0
:100E600090E0821B930B541710F0CF9608950197D2
:100E70000895FC01918D828D981761F0A28DAE0FBF
:100E8000BF2FB11D5D968C91928D9F5F9F73928F46
:100E900090E008958FEF9FEF0895FC01918D828D72
:100EA000981731F0828DE80FF11D858D90E008953F
:100EB0008FEF9FEF0895FC01818D228D90E0805C83
:100EC0009F4F821B91098F7399270895FC01A48D70
:100ED000A80FB92FB11DA35ABF4F2C91848D90E05C
:100EE00001968F739927848FA689B7892C93A0893F
:100EF000B1898C91837080648C93938D848D9813C9
:100F000006C00288F389E02D80818F7D808308955B
:100F1000EF92FF920F931F93CF93DF93EC01F62E86
:100F200081E0888F9B8D8C8D98131AC0E889F98990
:100F3000808185FF15C09FB7F894EE89FF89608393
:100F4000E889F98980818370806480839FBF81E014
:100F500090E0DF91CF911F910F91FF90EF90089556
:100F60000B8D10E00F5F1F4F0F731127E02E8C8D3C
:100F70008E110CC00FB607FCFACFE889F989808181
:100F800085FFF5CFCE010E946607F1CFEB8DEC0F08
:100F9000FD2FF11DE35AFF4FF0829FB7F8940B8F9E
:100FA000EA89FB8980818062D0CFCF93DF93EC0107
:100FB000888D8823B9F0AA89BB89E889F9898C9141
:100FC00085FD03C0808186FD0DC00FB607FCF7CFFD
:100FD0008C9185FFF2CF808185FFEDCFCE010E94FD
:100FE0006607E9CFDF91CF910895E6EAF3E080E567
:100FF00080831182E8EAF3E0158216821186138657
:1010000082E090E0A0E0B0E084879587A687B7876C
:1010100013A215A614A68DE091E093A782A717A6A8
:10102000E1EFF3E01382128288EE93E0A0E0B0E0FB
:1010300084839583A683B78389E191E0918380833C
:1010400085EC90E09587848784EC90E0978786878D
:1010500080EC90E0918B808B81EC90E0938B828B85
:1010600082EC90E0958B848B86EC90E0978B868B5E
:10107000118E128E138E148E08951F920F920FB63A
:101080000F9211242F933F934F935F936F937F930E
:101090008F939F93AF93BF93EF93FF939091B9007A
:1010A000892F887F803509F4BEC008F042C08033A4
:1010B00009F4B4C098F5883101F1D0F4883009F40E
:1010C000A5C0803109F4A2C0882309F4ECC0FF91C7
:1010D000EF91BF91AF919F918F917F916F915F91B0
:1010E0004F913F912F910F900FBE0F901F90189529
:1010F000803209F493C0883251F79091A003809117
:101100009F03981778F5E091A00381E08E0F8093FC
:10111000A003F0E0E158FC4F80817AC0803409F4EC
:101120008EC0883409F47CC0883389F680937B03B1
:101130006BC0803A09F49DC0B8F5803809F487C0C7
:1011400050F5803611F1D8F4883509F6E091A00306
:1011500081E08E0F8093A0038091BB00F0E0E15806
:10116000FC4F808380917E0381115AC081E080937F
:101170007D0384EA8093BC0010927C03A8CF803763
:1011800021F0987E983609F0A2CF83E080937C030B
:1011900010927A033FC0803909F459C0987E98387C
:1011A00009F095CF85E837C0883BC9F048F5883A03
:1011B00019F0803B09F08BCF84E080937C03109280
:1011C000590310925803F0E0E0E00995809158032C
:1011D000811105C081E08093580310923803E0919B
:1011E000590381E08E0F80935903F0E0E85CFC4FD7
:1011F00080818093BB00909159038091580323C054
:10120000907F903C09F063CF85ECB4CF8091A1032F
:101210008093BB0085EC8093BC0059CF80937B0307
:101220000E94830054CFE091A00381E08E0F809351
:10123000A0038091BB00F0E0E158FC4F80839091C7
:10124000A00380919F03981708F0ACCFE3CF809163
:101250007A03803208F0A6CFE0917A0381E08E0F06
:1012600080937A038091BB00F0E0E65AFC4F8083C4
:10127000D1CF85EC8093BC0010927C0380917A03DF
:10128000803230F4E0917A03F0E0E65AFC4F1082AD
:1012900060917A0370E08AE593E0F0E0E0E0099580
:1012A00010927A0314CF10927B03BACF1F921FB60D
:1012B0001F9211242F933F938F939F93AF93BF93CC
:1012C0008091A2039091A303A091A403B091A503E0
:1012D0003091370323E0230F2D3750F50196A11DE0
:1012E000B11D209337038093A2039093A303A0938F
:1012F000A403B093A5038091330390913403A0918C
:101300003503B09136030196A11DB11D80933303BF
:1013100090933403A0933503B0933603BF91AF91FC
:101320009F918F913F912F911F901FBE1F901895F5
:1013300026E8230F0296A11DB11DD3CF1F920F9255
:101340000FB60F9211242F933F934F935F936F9398
:101350007F938F939F93AF93BF93EF93FF93E0910E
:101360000701F09108010995FF91EF91BF91AF91AD
:101370009F918F917F916F915F914F913F912F91AD
:101380000F900FBE0F901F9018951F920F920FB6DF
:101390000F9211242F933F934F935F936F937F93FB
:1013A0008F939F93AF93BF93EF93FF93E0910501CA
:1013B000F09106010995FF91EF91BF91AF919F9137
:1013C0008F917F916F915F914F913F912F910F90EE
:1013D0000FBE0F901F90189584B18E6084B985B1AF
:1013E000817F85B98AB18C608AB98BB18C608BB9E9
:1013F0004A990AC04B9904C00E94DA00299AF8CF92
:101400000E94DA002B9AF4CF4B9904C00E94DA00B4
:101410002A9AEECF0E94DA00EBCF1F920F920FB6FE
:101420000F9211242F933F934F935F936F937F936A
:101430008F939F93AF93BF93EF93FF938091290175
:1014400090912A01A0912B01B0912C01892B8A2B1C
:101450008B2BC1F190912801809100008927809306
:1014600000008091290190912A01A0912B01B09157
:101470002C01181619061A061B069CF480912901E6
:1014800090912A01A0912B01B0912C010197A10903
:10149000B1098093290190932A01A0932B01B09365
:1014A0002C01FF91EF91BF91AF919F918F917F910F
:1014B0006F915F914F913F912F910F900FBE0F90C1
:1014C0001F90189580910001E8E6F0E0E4919FEF0D
:1014D00090930001E13051F0E23071F0E11102C06F
:1014E00010926E0060E00E948D00DBCF90916F0043
:1014F0009D7F90936F00F6CF909170009D7F9093A9
:10150000700091E09093B0009091B100987F94604A
:101510009093B1001092B300E5CF1F920F920FB6D7
:101520000F9211242F933F934F935F936F937F9369
:101530008F939F93AF93BF93EF93FF9381EF93E0CC
:101540000E946607FF91EF91BF91AF919F918F919C
:101550007F916F915F914F913F912F910F900FBEAF
:101560000F901F9018952F932FB72F938F939F93C2
:10157000EF93FF93E0910104F09102048081E091E8
:101580000704F091080482FD19C0908180910A043B
:101590008F5F8F7320910B04821741F0E0910A0452
:1015A000F0E0EF50FC4F958F80930A04FF91EF918C
:1015B0009F918F912F912FBF2F9118958081F6CFFA
:1015C000EE0FFF1F0590F491E02D0994F894FFCFE2
:1015D000FFFFFFFFFFD900D900000000000505FD57
:1015E0000627072607000000008807FD062A07D502
:0815F000075B0739074D0700F6
:00000001FF
